{
  "_format": "hh-sol-artifact-1",
  "contractName": "MockERC721",
  "sourceName": "contracts/MockERC721.sol",
  "abi": [
    {
      "inputs": [],
      "stateMutability": "nonpayable",
      "type": "constructor"
    },
    {
      "anonymous": false,
      "inputs": [
        {
          "indexed": true,
          "internalType": "address",
          "name": "owner",
          "type": "address"
        },
        {
          "indexed": true,
          "internalType": "address",
          "name": "approved",
          "type": "address"
        },
        {
          "indexed": true,
          "internalType": "uint256",
          "name": "tokenId",
          "type": "uint256"
        }
      ],
      "name": "Approval",
      "type": "event"
    },
    {
      "anonymous": false,
      "inputs": [
        {
          "indexed": true,
          "internalType": "address",
          "name": "owner",
          "type": "address"
        },
        {
          "indexed": true,
          "internalType": "address",
          "name": "operator",
          "type": "address"
        },
        {
          "indexed": false,
          "internalType": "bool",
          "name": "approved",
          "type": "bool"
        }
      ],
      "name": "ApprovalForAll",
      "type": "event"
    },
    {
      "anonymous": false,
      "inputs": [
        {
          "indexed": true,
          "internalType": "address",
          "name": "from",
          "type": "address"
        },
        {
          "indexed": true,
          "internalType": "address",
          "name": "to",
          "type": "address"
        },
        {
          "indexed": true,
          "internalType": "uint256",
          "name": "tokenId",
          "type": "uint256"
        }
      ],
      "name": "Transfer",
      "type": "event"
    },
    {
      "inputs": [],
      "name": "_tokenId",
      "outputs": [
        {
          "internalType": "uint256",
          "name": "",
          "type": "uint256"
        }
      ],
      "stateMutability": "view",
      "type": "function"
    },
    {
      "inputs": [
        {
          "internalType": "address",
          "name": "to",
          "type": "address"
        },
        {
          "internalType": "uint256",
          "name": "tokenId",
          "type": "uint256"
        }
      ],
      "name": "approve",
      "outputs": [],
      "stateMutability": "nonpayable",
      "type": "function"
    },
    {
      "inputs": [
        {
          "internalType": "address",
          "name": "owner",
          "type": "address"
        }
      ],
      "name": "balanceOf",
      "outputs": [
        {
          "internalType": "uint256",
          "name": "",
          "type": "uint256"
        }
      ],
      "stateMutability": "view",
      "type": "function"
    },
    {
      "inputs": [
        {
          "internalType": "uint256",
          "name": "tokenId",
          "type": "uint256"
        }
      ],
      "name": "getApproved",
      "outputs": [
        {
          "internalType": "address",
          "name": "",
          "type": "address"
        }
      ],
      "stateMutability": "view",
      "type": "function"
    },
    {
      "inputs": [
        {
          "internalType": "address",
          "name": "owner",
          "type": "address"
        },
        {
          "internalType": "address",
          "name": "operator",
          "type": "address"
        }
      ],
      "name": "isApprovedForAll",
      "outputs": [
        {
          "internalType": "bool",
          "name": "",
          "type": "bool"
        }
      ],
      "stateMutability": "view",
      "type": "function"
    },
    {
      "inputs": [
        {
          "internalType": "address",
          "name": "_to",
          "type": "address"
        }
      ],
      "name": "mint",
      "outputs": [],
      "stateMutability": "nonpayable",
      "type": "function"
    },
    {
      "inputs": [],
      "name": "name",
      "outputs": [
        {
          "internalType": "string",
          "name": "",
          "type": "string"
        }
      ],
      "stateMutability": "view",
      "type": "function"
    },
    {
      "inputs": [
        {
          "internalType": "uint256",
          "name": "tokenId",
          "type": "uint256"
        }
      ],
      "name": "ownerOf",
      "outputs": [
        {
          "internalType": "address",
          "name": "",
          "type": "address"
        }
      ],
      "stateMutability": "view",
      "type": "function"
    },
    {
      "inputs": [
        {
          "internalType": "address",
          "name": "from",
          "type": "address"
        },
        {
          "internalType": "address",
          "name": "to",
          "type": "address"
        },
        {
          "internalType": "uint256",
          "name": "tokenId",
          "type": "uint256"
        }
      ],
      "name": "safeTransferFrom",
      "outputs": [],
      "stateMutability": "nonpayable",
      "type": "function"
    },
    {
      "inputs": [
        {
          "internalType": "address",
          "name": "from",
          "type": "address"
        },
        {
          "internalType": "address",
          "name": "to",
          "type": "address"
        },
        {
          "internalType": "uint256",
          "name": "tokenId",
          "type": "uint256"
        },
        {
          "internalType": "bytes",
          "name": "_data",
          "type": "bytes"
        }
      ],
      "name": "safeTransferFrom",
      "outputs": [],
      "stateMutability": "nonpayable",
      "type": "function"
    },
    {
      "inputs": [
        {
          "internalType": "address",
          "name": "operator",
          "type": "address"
        },
        {
          "internalType": "bool",
          "name": "approved",
          "type": "bool"
        }
      ],
      "name": "setApprovalForAll",
      "outputs": [],
      "stateMutability": "nonpayable",
      "type": "function"
    },
    {
      "inputs": [
        {
          "internalType": "bytes4",
          "name": "interfaceId",
          "type": "bytes4"
        }
      ],
      "name": "supportsInterface",
      "outputs": [
        {
          "internalType": "bool",
          "name": "",
          "type": "bool"
        }
      ],
      "stateMutability": "view",
      "type": "function"
    },
    {
      "inputs": [],
      "name": "symbol",
      "outputs": [
        {
          "internalType": "string",
          "name": "",
          "type": "string"
        }
      ],
      "stateMutability": "view",
      "type": "function"
    },
    {
      "inputs": [
        {
          "internalType": "uint256",
          "name": "tokenId",
          "type": "uint256"
        }
      ],
      "name": "tokenURI",
      "outputs": [
        {
          "internalType": "string",
          "name": "",
          "type": "string"
        }
      ],
      "stateMutability": "view",
      "type": "function"
    },
    {
      "inputs": [
        {
          "internalType": "address",
          "name": "from",
          "type": "address"
        },
        {
          "internalType": "address",
          "name": "to",
          "type": "address"
        },
        {
          "internalType": "uint256",
          "name": "tokenId",
          "type": "uint256"
        }
      ],
      "name": "transferFrom",
      "outputs": [],
      "stateMutability": "nonpayable",
      "type": "function"
    }
  ],
  "bytecode": "0x60806040523480156200001157600080fd5b506040805180820182526012815271546573742045524337323120546f6b656e7360701b602080830191825283518085019094526003845262150dd560ea1b908401528151919291620000679160009162000086565b5080516200007d90600190602084019062000086565b50505062000169565b82805462000094906200012c565b90600052602060002090601f016020900481019282620000b8576000855562000103565b82601f10620000d357805160ff191683800117855562000103565b8280016001018555821562000103579182015b8281111562000103578251825591602001919060010190620000e6565b506200011192915062000115565b5090565b5b8082111562000111576000815560010162000116565b600181811c908216806200014157607f821691505b602082108114156200016357634e487b7160e01b600052602260045260246000fd5b50919050565b6113fa80620001796000396000f3fe608060405234801561001057600080fd5b50600436106100f55760003560e01c80636352211e11610097578063a22cb46511610066578063a22cb465146101f5578063b88d4fde14610208578063c87b56dd1461021b578063e985e9c51461022e57600080fd5b80636352211e146101b45780636a627842146101c757806370a08231146101da57806395d89b41146101ed57600080fd5b8063095ea7b3116100d3578063095ea7b31461016257806323b872dd14610177578063248225141461018a57806342842e0e146101a157600080fd5b806301ffc9a7146100fa57806306fdde0314610122578063081812fc14610137575b600080fd5b61010d6101083660046110d9565b61026a565b60405190151581526020015b60405180910390f35b61012a6102bc565b60405161011991906111c4565b61014a610145366004611113565b61034e565b6040516001600160a01b039091168152602001610119565b6101756101703660046110af565b6103e8565b005b610175610185366004610f5b565b6104fe565b61019360065481565b604051908152602001610119565b6101756101af366004610f5b565b61052f565b61014a6101c2366004611113565b61054a565b6101756101d5366004610f0d565b6105c1565b6101936101e8366004610f0d565b6105f1565b61012a610678565b610175610203366004611073565b610687565b610175610216366004610f97565b61074c565b61012a610229366004611113565b610784565b61010d61023c366004610f28565b6001600160a01b03918216600090815260056020908152604080832093909416825291909152205460ff1690565b60006001600160e01b031982166380ac58cd60e01b148061029b57506001600160e01b03198216635b5e139f60e01b145b806102b657506301ffc9a760e01b6001600160e01b03198316145b92915050565b6060600080546102cb906112e9565b80601f01602080910402602001604051908101604052809291908181526020018280546102f7906112e9565b80156103445780601f1061031957610100808354040283529160200191610344565b820191906000526020600020905b81548152906001019060200180831161032757829003601f168201915b5050505050905090565b6000818152600260205260408120546001600160a01b03166103cc5760405162461bcd60e51b815260206004820152602c60248201527f4552433732313a20617070726f76656420717565727920666f72206e6f6e657860448201526b34b9ba32b73a103a37b5b2b760a11b60648201526084015b60405180910390fd5b506000908152600460205260409020546001600160a01b031690565b60006103f38261054a565b9050806001600160a01b0316836001600160a01b031614156104615760405162461bcd60e51b815260206004820152602160248201527f4552433732313a20617070726f76616c20746f2063757272656e74206f776e656044820152603960f91b60648201526084016103c3565b336001600160a01b038216148061047d575061047d813361023c565b6104ef5760405162461bcd60e51b815260206004820152603860248201527f4552433732313a20617070726f76652063616c6c6572206973206e6f74206f7760448201527f6e6572206e6f7220617070726f76656420666f7220616c6c000000000000000060648201526084016103c3565b6104f9838361086c565b505050565b61050833826108da565b6105245760405162461bcd60e51b81526004016103c390611229565b6104f98383836109d1565b6104f98383836040518060200160405280600081525061074c565b6000818152600260205260408120546001600160a01b0316806102b65760405162461bcd60e51b815260206004820152602960248201527f4552433732313a206f776e657220717565727920666f72206e6f6e657869737460448201526832b73a103a37b5b2b760b91b60648201526084016103c3565b6105cd81600654610b71565b6105d8600654610784565b50600680549060006105e983611324565b919050555050565b60006001600160a01b03821661065c5760405162461bcd60e51b815260206004820152602a60248201527f4552433732313a2062616c616e636520717565727920666f7220746865207a65604482015269726f206164647265737360b01b60648201526084016103c3565b506001600160a01b031660009081526003602052604090205490565b6060600180546102cb906112e9565b6001600160a01b0382163314156106e05760405162461bcd60e51b815260206004820152601960248201527f4552433732313a20617070726f766520746f2063616c6c65720000000000000060448201526064016103c3565b3360008181526005602090815260408083206001600160a01b03871680855290835292819020805460ff191686151590811790915590519081529192917f17307eab39ab6107e8899845ad3d59bd9653f200f220920489ca2b5937696c31910160405180910390a35050565b61075633836108da565b6107725760405162461bcd60e51b81526004016103c390611229565b61077e84848484610cb3565b50505050565b6000818152600260205260409020546060906001600160a01b03166108035760405162461bcd60e51b815260206004820152602f60248201527f4552433732314d657461646174613a2055524920717565727920666f72206e6f60448201526e3732bc34b9ba32b73a103a37b5b2b760891b60648201526084016103c3565b600061081a60408051602081019091526000815290565b9050600081511161083a5760405180602001604052806000815250610865565b8061084484610ce6565b604051602001610855929190611158565b6040516020818303038152906040525b9392505050565b600081815260046020526040902080546001600160a01b0319166001600160a01b03841690811790915581906108a18261054a565b6001600160a01b03167f8c5be1e5ebec7d5bd14f71427d1e84f3dd0314c0f7b2291e5b200ac8c7c3b92560405160405180910390a45050565b6000818152600260205260408120546001600160a01b03166109535760405162461bcd60e51b815260206004820152602c60248201527f4552433732313a206f70657261746f7220717565727920666f72206e6f6e657860448201526b34b9ba32b73a103a37b5b2b760a11b60648201526084016103c3565b600061095e8361054a565b9050806001600160a01b0316846001600160a01b031614806109995750836001600160a01b031661098e8461034e565b6001600160a01b0316145b806109c957506001600160a01b0380821660009081526005602090815260408083209388168352929052205460ff165b949350505050565b826001600160a01b03166109e48261054a565b6001600160a01b031614610a4c5760405162461bcd60e51b815260206004820152602960248201527f4552433732313a207472616e73666572206f6620746f6b656e2074686174206960448201526839903737ba1037bbb760b91b60648201526084016103c3565b6001600160a01b038216610aae5760405162461bcd60e51b8152602060048201526024808201527f4552433732313a207472616e7366657220746f20746865207a65726f206164646044820152637265737360e01b60648201526084016103c3565b610ab960008261086c565b6001600160a01b0383166000908152600360205260408120805460019290610ae29084906112a6565b90915550506001600160a01b0382166000908152600360205260408120805460019290610b1090849061127a565b909155505060008181526002602052604080822080546001600160a01b0319166001600160a01b0386811691821790925591518493918716917fddf252ad1be2c89b69c2b068fc378daa952ba7f163c4a11628f55a4df523b3ef91a4505050565b6001600160a01b038216610bc75760405162461bcd60e51b815260206004820181905260248201527f4552433732313a206d696e7420746f20746865207a65726f206164647265737360448201526064016103c3565b6000818152600260205260409020546001600160a01b031615610c2c5760405162461bcd60e51b815260206004820152601c60248201527f4552433732313a20746f6b656e20616c7265616479206d696e7465640000000060448201526064016103c3565b6001600160a01b0382166000908152600360205260408120805460019290610c5590849061127a565b909155505060008181526002602052604080822080546001600160a01b0319166001600160a01b03861690811790915590518392907fddf252ad1be2c89b69c2b068fc378daa952ba7f163c4a11628f55a4df523b3ef908290a45050565b610cbe8484846109d1565b610cca84848484610de4565b61077e5760405162461bcd60e51b81526004016103c3906111d7565b606081610d0a5750506040805180820190915260018152600360fc1b602082015290565b8160005b8115610d345780610d1e81611324565b9150610d2d9050600a83611292565b9150610d0e565b60008167ffffffffffffffff811115610d4f57610d4f611395565b6040519080825280601f01601f191660200182016040528015610d79576020820181803683370190505b5090505b84156109c957610d8e6001836112a6565b9150610d9b600a8661133f565b610da690603061127a565b60f81b818381518110610dbb57610dbb61137f565b60200101906001600160f81b031916908160001a905350610ddd600a86611292565b9450610d7d565b60006001600160a01b0384163b15610ee657604051630a85bd0160e11b81526001600160a01b0385169063150b7a0290610e28903390899088908890600401611187565b602060405180830381600087803b158015610e4257600080fd5b505af1925050508015610e72575060408051601f3d908101601f19168201909252610e6f918101906110f6565b60015b610ecc573d808015610ea0576040519150601f19603f3d011682016040523d82523d6000602084013e610ea5565b606091505b508051610ec45760405162461bcd60e51b81526004016103c3906111d7565b805181602001fd5b6001600160e01b031916630a85bd0160e11b1490506109c9565b506001949350505050565b80356001600160a01b0381168114610f0857600080fd5b919050565b600060208284031215610f1f57600080fd5b61086582610ef1565b60008060408385031215610f3b57600080fd5b610f4483610ef1565b9150610f5260208401610ef1565b90509250929050565b600080600060608486031215610f7057600080fd5b610f7984610ef1565b9250610f8760208501610ef1565b9150604084013590509250925092565b60008060008060808587031215610fad57600080fd5b610fb685610ef1565b9350610fc460208601610ef1565b925060408501359150606085013567ffffffffffffffff80821115610fe857600080fd5b818701915087601f830112610ffc57600080fd5b81358181111561100e5761100e611395565b604051601f8201601f19908116603f0116810190838211818310171561103657611036611395565b816040528281528a602084870101111561104f57600080fd5b82602086016020830137600060208483010152809550505050505092959194509250565b6000806040838503121561108657600080fd5b61108f83610ef1565b9150602083013580151581146110a457600080fd5b809150509250929050565b600080604083850312156110c257600080fd5b6110cb83610ef1565b946020939093013593505050565b6000602082840312156110eb57600080fd5b8135610865816113ab565b60006020828403121561110857600080fd5b8151610865816113ab565b60006020828403121561112557600080fd5b5035919050565b600081518084526111448160208601602086016112bd565b601f01601f19169290920160200192915050565b6000835161116a8184602088016112bd565b83519083019061117e8183602088016112bd565b01949350505050565b6001600160a01b03858116825284166020820152604081018390526080606082018190526000906111ba9083018461112c565b9695505050505050565b602081526000610865602083018461112c565b60208082526032908201527f4552433732313a207472616e7366657220746f206e6f6e20455243373231526560408201527131b2b4bb32b91034b6b83632b6b2b73a32b960711b606082015260800190565b60208082526031908201527f4552433732313a207472616e736665722063616c6c6572206973206e6f74206f6040820152701ddb995c881b9bdc88185c1c1c9bdd9959607a1b606082015260800190565b6000821982111561128d5761128d611353565b500190565b6000826112a1576112a1611369565b500490565b6000828210156112b8576112b8611353565b500390565b60005b838110156112d85781810151838201526020016112c0565b8381111561077e5750506000910152565b600181811c908216806112fd57607f821691505b6020821081141561131e57634e487b7160e01b600052602260045260246000fd5b50919050565b600060001982141561133857611338611353565b5060010190565b60008261134e5761134e611369565b500690565b634e487b7160e01b600052601160045260246000fd5b634e487b7160e01b600052601260045260246000fd5b634e487b7160e01b600052603260045260246000fd5b634e487b7160e01b600052604160045260246000fd5b6001600160e01b0319811681146113c157600080fd5b5056fea26469706673582212200ed566f4792b5a084d46c28f8d85ee666ee25951bfbabde7dd5e173578cdd7a364736f6c63430008070033",
  "linkReferences": {},
  "deployedLinkReferences": {}
}