{
  "_format": "hh-sol-artifact-1",
  "contractName": "GumballMachine",
  "sourceName": "contracts/GumballMachine.sol",
  "abi": [
    {
      "inputs": [
        {
          "internalType": "address",
          "name": "_payToken",
          "type": "address"
        }
      ],
      "stateMutability": "nonpayable",
      "type": "constructor"
    },
    {
      "anonymous": false,
      "inputs": [
        {
          "indexed": true,
          "internalType": "address",
          "name": "owner",
          "type": "address"
        },
        {
          "indexed": true,
          "internalType": "address",
          "name": "spender",
          "type": "address"
        },
        {
          "indexed": false,
          "internalType": "uint256",
          "name": "value",
          "type": "uint256"
        }
      ],
      "name": "Approval",
      "type": "event"
    },
    {
      "anonymous": false,
      "inputs": [
        {
          "indexed": true,
          "internalType": "address",
          "name": "owner",
          "type": "address"
        },
        {
          "indexed": true,
          "internalType": "uint256",
          "name": "amount",
          "type": "uint256"
        }
      ],
      "name": "GumMinted",
      "type": "event"
    },
    {
      "anonymous": false,
      "inputs": [
        {
          "indexed": true,
          "internalType": "address",
          "name": "owner",
          "type": "address"
        },
        {
          "indexed": true,
          "internalType": "address",
          "name": "nftAddress",
          "type": "address"
        },
        {
          "indexed": true,
          "internalType": "uint256",
          "name": "nftId",
          "type": "uint256"
        }
      ],
      "name": "GumballAdded",
      "type": "event"
    },
    {
      "anonymous": false,
      "inputs": [
        {
          "indexed": true,
          "internalType": "address",
          "name": "nftAddress",
          "type": "address"
        },
        {
          "indexed": true,
          "internalType": "uint256",
          "name": "nftId",
          "type": "uint256"
        }
      ],
      "name": "GumballClaimed",
      "type": "event"
    },
    {
      "anonymous": false,
      "inputs": [
        {
          "indexed": true,
          "internalType": "address",
          "name": "previousOwner",
          "type": "address"
        },
        {
          "indexed": true,
          "internalType": "address",
          "name": "newOwner",
          "type": "address"
        }
      ],
      "name": "OwnershipTransferred",
      "type": "event"
    },
    {
      "anonymous": false,
      "inputs": [
        {
          "indexed": true,
          "internalType": "address",
          "name": "from",
          "type": "address"
        },
        {
          "indexed": true,
          "internalType": "address",
          "name": "to",
          "type": "address"
        },
        {
          "indexed": false,
          "internalType": "uint256",
          "name": "value",
          "type": "uint256"
        }
      ],
      "name": "Transfer",
      "type": "event"
    },
    {
      "inputs": [],
      "name": "BASIC_EXCHANGE_FROM",
      "outputs": [
        {
          "internalType": "uint256",
          "name": "",
          "type": "uint256"
        }
      ],
      "stateMutability": "view",
      "type": "function"
    },
    {
      "inputs": [],
      "name": "BASIC_EXCHANGE_TO",
      "outputs": [
        {
          "internalType": "uint256",
          "name": "",
          "type": "uint256"
        }
      ],
      "stateMutability": "view",
      "type": "function"
    },
    {
      "inputs": [],
      "name": "BLOCK_BUFFER",
      "outputs": [
        {
          "internalType": "uint256",
          "name": "",
          "type": "uint256"
        }
      ],
      "stateMutability": "view",
      "type": "function"
    },
    {
      "inputs": [],
      "name": "DEAL_EXCHANGE_FROM",
      "outputs": [
        {
          "internalType": "uint256",
          "name": "",
          "type": "uint256"
        }
      ],
      "stateMutability": "view",
      "type": "function"
    },
    {
      "inputs": [],
      "name": "DEAL_EXCHANGE_TO",
      "outputs": [
        {
          "internalType": "uint256",
          "name": "",
          "type": "uint256"
        }
      ],
      "stateMutability": "view",
      "type": "function"
    },
    {
      "inputs": [],
      "name": "GUM",
      "outputs": [
        {
          "internalType": "contract IERC20",
          "name": "",
          "type": "address"
        }
      ],
      "stateMutability": "view",
      "type": "function"
    },
    {
      "inputs": [],
      "name": "GUMBALL_MACHINE_PRICE",
      "outputs": [
        {
          "internalType": "uint256",
          "name": "",
          "type": "uint256"
        }
      ],
      "stateMutability": "view",
      "type": "function"
    },
    {
      "inputs": [],
      "name": "MACHINE_ACTIVATE_REQUIREMENT",
      "outputs": [
        {
          "internalType": "uint256",
          "name": "",
          "type": "uint256"
        }
      ],
      "stateMutability": "view",
      "type": "function"
    },
    {
      "inputs": [],
      "name": "MACHINE_DEACTIVATE_REQUIREMENT",
      "outputs": [
        {
          "internalType": "uint256",
          "name": "",
          "type": "uint256"
        }
      ],
      "stateMutability": "view",
      "type": "function"
    },
    {
      "inputs": [],
      "name": "MAX_BLOCKS",
      "outputs": [
        {
          "internalType": "uint256",
          "name": "",
          "type": "uint256"
        }
      ],
      "stateMutability": "view",
      "type": "function"
    },
    {
      "inputs": [
        {
          "internalType": "address",
          "name": "_nftAddress",
          "type": "address"
        },
        {
          "internalType": "uint256",
          "name": "_nftId",
          "type": "uint256"
        }
      ],
      "name": "addGumball",
      "outputs": [],
      "stateMutability": "nonpayable",
      "type": "function"
    },
    {
      "inputs": [
        {
          "internalType": "address",
          "name": "owner",
          "type": "address"
        },
        {
          "internalType": "address",
          "name": "spender",
          "type": "address"
        }
      ],
      "name": "allowance",
      "outputs": [
        {
          "internalType": "uint256",
          "name": "",
          "type": "uint256"
        }
      ],
      "stateMutability": "view",
      "type": "function"
    },
    {
      "inputs": [
        {
          "internalType": "address",
          "name": "spender",
          "type": "address"
        },
        {
          "internalType": "uint256",
          "name": "amount",
          "type": "uint256"
        }
      ],
      "name": "approve",
      "outputs": [
        {
          "internalType": "bool",
          "name": "",
          "type": "bool"
        }
      ],
      "stateMutability": "nonpayable",
      "type": "function"
    },
    {
      "inputs": [
        {
          "internalType": "address",
          "name": "account",
          "type": "address"
        }
      ],
      "name": "balanceOf",
      "outputs": [
        {
          "internalType": "uint256",
          "name": "",
          "type": "uint256"
        }
      ],
      "stateMutability": "view",
      "type": "function"
    },
    {
      "inputs": [],
      "name": "blockNum",
      "outputs": [
        {
          "internalType": "uint256",
          "name": "",
          "type": "uint256"
        }
      ],
      "stateMutability": "view",
      "type": "function"
    },
    {
      "inputs": [],
      "name": "crankTheLever",
      "outputs": [],
      "stateMutability": "nonpayable",
      "type": "function"
    },
    {
      "inputs": [],
      "name": "decimals",
      "outputs": [
        {
          "internalType": "uint8",
          "name": "",
          "type": "uint8"
        }
      ],
      "stateMutability": "view",
      "type": "function"
    },
    {
      "inputs": [
        {
          "internalType": "address",
          "name": "spender",
          "type": "address"
        },
        {
          "internalType": "uint256",
          "name": "subtractedValue",
          "type": "uint256"
        }
      ],
      "name": "decreaseAllowance",
      "outputs": [
        {
          "internalType": "bool",
          "name": "",
          "type": "bool"
        }
      ],
      "stateMutability": "nonpayable",
      "type": "function"
    },
    {
      "inputs": [],
      "name": "getBasicGumballTokens",
      "outputs": [],
      "stateMutability": "nonpayable",
      "type": "function"
    },
    {
      "inputs": [],
      "name": "getDealGumballTokens",
      "outputs": [],
      "stateMutability": "nonpayable",
      "type": "function"
    },
    {
      "inputs": [
        {
          "internalType": "address",
          "name": "",
          "type": "address"
        }
      ],
      "name": "gumballers",
      "outputs": [
        {
          "internalType": "uint256",
          "name": "gumballerBlocknum",
          "type": "uint256"
        },
        {
          "internalType": "bool",
          "name": "gumballerBool",
          "type": "bool"
        }
      ],
      "stateMutability": "view",
      "type": "function"
    },
    {
      "inputs": [
        {
          "internalType": "uint256",
          "name": "",
          "type": "uint256"
        }
      ],
      "name": "gumballs",
      "outputs": [
        {
          "internalType": "address",
          "name": "nftAddress",
          "type": "address"
        },
        {
          "internalType": "uint256",
          "name": "nftId",
          "type": "uint256"
        },
        {
          "internalType": "address",
          "name": "owner",
          "type": "address"
        }
      ],
      "stateMutability": "view",
      "type": "function"
    },
    {
      "inputs": [
        {
          "internalType": "address",
          "name": "spender",
          "type": "address"
        },
        {
          "internalType": "uint256",
          "name": "addedValue",
          "type": "uint256"
        }
      ],
      "name": "increaseAllowance",
      "outputs": [
        {
          "internalType": "bool",
          "name": "",
          "type": "bool"
        }
      ],
      "stateMutability": "nonpayable",
      "type": "function"
    },
    {
      "inputs": [],
      "name": "insertGumballToken",
      "outputs": [],
      "stateMutability": "nonpayable",
      "type": "function"
    },
    {
      "inputs": [],
      "name": "isMachineInitialized",
      "outputs": [
        {
          "internalType": "bool",
          "name": "",
          "type": "bool"
        }
      ],
      "stateMutability": "view",
      "type": "function"
    },
    {
      "inputs": [],
      "name": "lastGumball",
      "outputs": [
        {
          "internalType": "uint256",
          "name": "",
          "type": "uint256"
        }
      ],
      "stateMutability": "view",
      "type": "function"
    },
    {
      "inputs": [],
      "name": "name",
      "outputs": [
        {
          "internalType": "string",
          "name": "",
          "type": "string"
        }
      ],
      "stateMutability": "view",
      "type": "function"
    },
    {
      "inputs": [
        {
          "internalType": "address",
          "name": "",
          "type": "address"
        },
        {
          "internalType": "address",
          "name": "",
          "type": "address"
        },
        {
          "internalType": "uint256",
          "name": "",
          "type": "uint256"
        },
        {
          "internalType": "bytes",
          "name": "",
          "type": "bytes"
        }
      ],
      "name": "onERC721Received",
      "outputs": [
        {
          "internalType": "bytes4",
          "name": "",
          "type": "bytes4"
        }
      ],
      "stateMutability": "nonpayable",
      "type": "function"
    },
    {
      "inputs": [],
      "name": "owner",
      "outputs": [
        {
          "internalType": "address",
          "name": "",
          "type": "address"
        }
      ],
      "stateMutability": "view",
      "type": "function"
    },
    {
      "inputs": [],
      "name": "payToken",
      "outputs": [
        {
          "internalType": "contract IERC20",
          "name": "",
          "type": "address"
        }
      ],
      "stateMutability": "view",
      "type": "function"
    },
    {
      "inputs": [],
      "name": "renounceOwnership",
      "outputs": [],
      "stateMutability": "nonpayable",
      "type": "function"
    },
    {
      "inputs": [],
      "name": "revealYourGumball",
      "outputs": [],
      "stateMutability": "nonpayable",
      "type": "function"
    },
    {
      "inputs": [
        {
          "internalType": "uint256",
          "name": "_blockNum",
          "type": "uint256"
        }
      ],
      "name": "setBlockNum",
      "outputs": [],
      "stateMutability": "nonpayable",
      "type": "function"
    },
    {
      "inputs": [
        {
          "internalType": "address",
          "name": "_payToken",
          "type": "address"
        }
      ],
      "name": "setPayToken",
      "outputs": [],
      "stateMutability": "nonpayable",
      "type": "function"
    },
    {
      "inputs": [],
      "name": "symbol",
      "outputs": [
        {
          "internalType": "string",
          "name": "",
          "type": "string"
        }
      ],
      "stateMutability": "view",
      "type": "function"
    },
    {
      "inputs": [],
      "name": "totalGumballs",
      "outputs": [
        {
          "internalType": "uint256",
          "name": "",
          "type": "uint256"
        }
      ],
      "stateMutability": "view",
      "type": "function"
    },
    {
      "inputs": [],
      "name": "totalSupply",
      "outputs": [
        {
          "internalType": "uint256",
          "name": "",
          "type": "uint256"
        }
      ],
      "stateMutability": "view",
      "type": "function"
    },
    {
      "inputs": [
        {
          "internalType": "address",
          "name": "recipient",
          "type": "address"
        },
        {
          "internalType": "uint256",
          "name": "amount",
          "type": "uint256"
        }
      ],
      "name": "transfer",
      "outputs": [
        {
          "internalType": "bool",
          "name": "",
          "type": "bool"
        }
      ],
      "stateMutability": "nonpayable",
      "type": "function"
    },
    {
      "inputs": [
        {
          "internalType": "address",
          "name": "sender",
          "type": "address"
        },
        {
          "internalType": "address",
          "name": "recipient",
          "type": "address"
        },
        {
          "internalType": "uint256",
          "name": "amount",
          "type": "uint256"
        }
      ],
      "name": "transferFrom",
      "outputs": [
        {
          "internalType": "bool",
          "name": "",
          "type": "bool"
        }
      ],
      "stateMutability": "nonpayable",
      "type": "function"
    },
    {
      "inputs": [
        {
          "internalType": "address",
          "name": "newOwner",
          "type": "address"
        }
      ],
      "name": "transferOwnership",
      "outputs": [],
      "stateMutability": "nonpayable",
      "type": "function"
    }
  ],
  "bytecode": "0x60806040523480156200001157600080fd5b506040516200229c3803806200229c8339810160408190526200003491620001f7565b6040518060400160405280600e81526020016d47756d62616c6c20546f6b656e7360901b8152506040518060400160405280600381526020016247554d60e81b81525081600390805190602001906200008f92919062000151565b508051620000a590600490602084019062000151565b505050620000c2620000bc620000fb60201b60201c565b620000ff565b600160065560098054306001600160a01b031991821617909155600a80549091166001600160a01b039290921691909117905562000266565b3390565b600580546001600160a01b038381166001600160a01b0319831681179093556040519116919082907f8be0079c531659141344cd1fd0a4f28419497f9722a3daafe3b4186f6b6457e090600090a35050565b8280546200015f9062000229565b90600052602060002090601f016020900481019282620001835760008555620001ce565b82601f106200019e57805160ff1916838001178555620001ce565b82800160010185558215620001ce579182015b82811115620001ce578251825591602001919060010190620001b1565b50620001dc929150620001e0565b5090565b5b80821115620001dc5760008155600101620001e1565b6000602082840312156200020a57600080fd5b81516001600160a01b03811681146200022257600080fd5b9392505050565b600181811c908216806200023e57607f821691505b602082108114156200026057634e487b7160e01b600052602260045260246000fd5b50919050565b61202680620002766000396000f3fe608060405234801561001057600080fd5b50600436106102485760003560e01c80637f0a655d1161013b578063b6e5b513116100b8578063e33729341161007c578063e337293414610535578063e6576cea1461053e578063f2fde38b14610546578063f55769da1461049b578063faaf69711461055957600080fd5b8063b6e5b513146104d0578063d25a9a23146104d9578063d30b5560146104ec578063dd62ed3e146104f4578063e31325e21461052d57600080fd5b806398c3124e116100ff57806398c3124e146104805780639a2c6c3414610493578063a1aa76271461049b578063a457c2d7146104aa578063a9059cbb146104bd57600080fd5b80637f0a655d146103fa5780638ae63d6d146104375780638da5cb5b1461044057806395d89b411461046557806396336b301461046d57600080fd5b8063313ce567116101c95780635b834e0b1161018d5780635b834e0b1461036f5780636f96e99c146103ae57806370a08231146103c1578063715018a6146103ea57806372300d8f146103f257600080fd5b8063313ce567146103225780633950935114610331578063396171e11461034457806356875c311461035857806356e20d6b1461036757600080fd5b806318160ddd1161021057806318160ddd146102ec57806323b872dd146102f4578063240bc3e31461028e57806326833dcc146103075780632bdd22901461030f57600080fd5b806306fdde031461024d578063095ea7b31461026b57806309a027781461028e578063116cfca6146102ab578063150b7a02146102b5575b600080fd5b610255610561565b6040516102629190611cfb565b60405180910390f35b61027e610279366004611c57565b6105f3565b6040519015158152602001610262565b61029d671bc16d674ec8000081565b604051908152602001610262565b6102b3610609565b005b6102d36102c3366004611b77565b630a85bd0160e11b949350505050565b6040516001600160e01b03199091168152602001610262565b60025461029d565b61027e610302366004611b36565b6106d8565b61029d60fa81565b6102b361031d366004611ca5565b600d55565b60405160128152602001610262565b61027e61033f366004611c57565b610782565b600a5461027e90600160a01b900460ff1681565b61029d674563918244f4000081565b61029d600181565b61039961037d366004611abc565b6007602052600090815260409020805460019091015460ff1682565b60408051928352901515602083015201610262565b6102b36103bc366004611abc565b6107be565b61029d6103cf366004611abc565b6001600160a01b031660009081526020819052604090205490565b6102b361080a565b61029d603281565b61040d610408366004611ca5565b610840565b604080516001600160a01b0394851681526020810193909352921691810191909152606001610262565b61029d600d5481565b6005546001600160a01b03165b6040516001600160a01b039091168152602001610262565b61025561087e565b600a5461044d906001600160a01b031681565b6102b361048e366004611c57565b61088d565b6102b3610a6d565b61029d670de0b6b3a764000081565b61027e6104b8366004611c57565b610d31565b61027e6104cb366004611c57565b610dca565b61029d600b5481565b60095461044d906001600160a01b031681565b6102b3610dd7565b61029d610502366004611afd565b6001600160a01b03918216600090815260016020908152604080832093909416825291909152205490565b6102b3610e37565b61029d600c5481565b61029d600081565b6102b3610554366004611abc565b610e90565b6102b3610f2b565b60606003805461057090611f0b565b80601f016020809104026020016040519081016040528092919081815260200182805461059c90611f0b565b80156105e95780601f106105be576101008083540402835291602001916105e9565b820191906000526020600020905b8154815290600101906020018083116105cc57829003601f168201915b5050505050905090565b6000610600338484611351565b50600192915050565b33600090815260076020526040902060018082015460ff1615151461066f5760405162461bcd60e51b8152602060048201526017602482015276139bc81858dd1a5d994811dd5b58985b1b08199bdd5b99604a1b60448201526064015b60405180910390fd5b805461067d90600190611ec5565b43101561069c5760405162461bcd60e51b815260040161066690611d50565b80546106aa9060fa90611ec5565b4311156106c95760405162461bcd60e51b815260040161066690611e27565b6106d4600143611ec5565b9055565b60006106e5848484611475565b6001600160a01b03841660009081526001602090815260408083203384529091529020548281101561076a5760405162461bcd60e51b815260206004820152602860248201527f45524332303a207472616e7366657220616d6f756e74206578636565647320616044820152676c6c6f77616e636560c01b6064820152608401610666565b6107778533858403611351565b506001949350505050565b3360008181526001602090815260408083206001600160a01b038716845290915281205490916106009185906107b9908690611ec5565b611351565b6005546001600160a01b031633146107e85760405162461bcd60e51b815260040161066690611df2565b600a80546001600160a01b0319166001600160a01b0392909216919091179055565b6005546001600160a01b031633146108345760405162461bcd60e51b815260040161066690611df2565b61083e6000611644565b565b6008818154811061085057600080fd5b60009182526020909120600390910201805460018201546002909201546001600160a01b0391821693501683565b60606004805461057090611f0b565b600260065414156108b05760405162461bcd60e51b815260040161066690611e8e565b6002600655336040516331a9108f60e11b8152600481018390526001600160a01b0391821691841690636352211e9060240160206040518083038186803b1580156108fa57600080fd5b505afa15801561090e573d6000803e3d6000fd5b505050506040513d601f19601f820116820180604052508101906109329190611ae0565b6001600160a01b0316146109815760405162461bcd60e51b8152602060048201526016602482015275165bdd48191bdb89dd081bdddb881d1a1a5cc813919560521b6044820152606401610666565b6001600160a01b03821663e985e9c5336040516001600160e01b031960e084901b1681526001600160a01b03909116600482015230602482015260440160206040518083038186803b1580156109d657600080fd5b505afa1580156109ea573d6000803e3d6000fd5b505050506040513d601f19601f82011682018060405250810190610a0e9190611c83565b610a5a5760405162461bcd60e51b815260206004820152601c60248201527f47756d62616c6c206861736e2774206265656e20617070726f766564000000006044820152606401610666565b610a648282611696565b50506001600655565b60026006541415610a905760405162461bcd60e51b815260040161066690611e8e565b6002600655333214610ab45760405162461bcd60e51b815260040161066690611dad565b600a54600160a01b900460ff161515600114610b4f5760405162461bcd60e51b815260206004820152604e60248201527f4d616368696e652073746f636b20697320746f6f206c6f7720746f207573652c60448201527f20636f6d65206261636b206c61746572207768656e206d6f72652047756d626160648201526d6c6c73206172652061646465642160901b608482015260a401610666565b3360008181526007602090815260409182902082516370a0823160e01b8152600481019490945291519192670de0b6b3a76400009230926370a082319260248082019391829003018186803b158015610ba757600080fd5b505afa158015610bbb573d6000803e3d6000fd5b505050506040513d601f19601f82011682018060405250810190610bdf9190611cbe565b1015610c385760405162461bcd60e51b815260206004820152602260248201527f496e73756666696369656e742047756d62616c6c20546f6b656e2062616c616e604482015261636560f01b6064820152608401610666565b600181015460ff1615610c8d5760405162461bcd60e51b815260206004820152601960248201527f47756d62616c6c20616c726561647920707572636861736564000000000000006044820152606401610666565b6009546001600160a01b03166323b872dd3330670de0b6b3a76400006040518463ffffffff1660e01b8152600401610cc793929190611cd7565b602060405180830381600087803b158015610ce157600080fd5b505af1158015610cf5573d6000803e3d6000fd5b505050506040513d601f19601f82011682018060405250810190610d199190611c83565b504381556001908101805460ff191682179055600655565b3360009081526001602090815260408083206001600160a01b038616845290915281205482811015610db35760405162461bcd60e51b815260206004820152602560248201527f45524332303a2064656372656173656420616c6c6f77616e63652062656c6f77604482015264207a65726f60d81b6064820152608401610666565b610dc03385858403611351565b5060019392505050565b6000610600338484611475565b60026006541415610dfa5760405162461bcd60e51b815260040161066690611e8e565b6002600655333214610e1e5760405162461bcd60e51b815260040161066690611dad565b610e3033671bc16d674ec800006118bb565b6001600655565b60026006541415610e5a5760405162461bcd60e51b815260040161066690611e8e565b6002600655333214610e7e5760405162461bcd60e51b815260040161066690611dad565b610e3033674563918244f400006118bb565b6005546001600160a01b03163314610eba5760405162461bcd60e51b815260040161066690611df2565b6001600160a01b038116610f1f5760405162461bcd60e51b815260206004820152602660248201527f4f776e61626c653a206e6577206f776e657220697320746865207a65726f206160448201526564647265737360d01b6064820152608401610666565b610f2881611644565b50565b33600090815260076020526040902060018082015460ff16151514610f8c5760405162461bcd60e51b8152602060048201526017602482015276139bc81858dd1a5d994811dd5b58985b1b08199bdd5b99604a1b6044820152606401610666565b8054610f9a90600190611ec5565b431015610fb95760405162461bcd60e51b815260040161066690611d50565b8054610fc79060fa90611ec5565b431115610fe65760405162461bcd60e51b815260040161066690611e27565b8054600b54604080519240602084018190529260009291016040516020818303038152906040528051906020012060001c6110219190611f61565b600080855560018501805460ff191690556008805492935090918390811061104b5761104b611faf565b60009182526020822060039091020154600880546001600160a01b039092169350908490811061107d5761107d611faf565b906000526020600020906003020160010154905060086001600b546110a29190611edd565b815481106110b2576110b2611faf565b6000918252602090912060039091020154600880546001600160a01b0390921691859081106110e3576110e3611faf565b906000526020600020906003020160000160006101000a8154816001600160a01b0302191690836001600160a01b0316021790555060086001600b546111299190611edd565b8154811061113957611139611faf565b9060005260206000209060030201600101546008848154811061115e5761115e611faf565b90600052602060002090600302016001018190555060086001600b546111849190611edd565b8154811061119457611194611faf565b906000526020600020906003020160020160009054906101000a90046001600160a01b0316600884815481106111cc576111cc611faf565b6000918252602090912060039091020160020180546001600160a01b0319166001600160a01b0392909216919091179055600c839055600880548061121357611213611f99565b60008281526020812060036000199093019283020180546001600160a01b03199081168255600182018390556002909101805490911690559155600b80549161125b83611ef4565b91905055506000600b541161127857600a805460ff60a01b191690555b6040516331a9108f60e11b8152600481018290526001600160a01b038316906342842e0e908290636352211e9060240160206040518083038186803b1580156112c057600080fd5b505afa1580156112d4573d6000803e3d6000fd5b505050506040513d601f19601f820116820180604052508101906112f89190611ae0565b33846040518463ffffffff1660e01b815260040161131893929190611cd7565b600060405180830381600087803b15801561133257600080fd5b505af1158015611346573d6000803e3d6000fd5b505050505050505050565b6001600160a01b0383166113b35760405162461bcd60e51b8152602060048201526024808201527f45524332303a20617070726f76652066726f6d20746865207a65726f206164646044820152637265737360e01b6064820152608401610666565b6001600160a01b0382166114145760405162461bcd60e51b815260206004820152602260248201527f45524332303a20617070726f766520746f20746865207a65726f206164647265604482015261737360f01b6064820152608401610666565b6001600160a01b0383811660008181526001602090815260408083209487168084529482529182902085905590518481527f8c5be1e5ebec7d5bd14f71427d1e84f3dd0314c0f7b2291e5b200ac8c7c3b925910160405180910390a3505050565b6001600160a01b0383166114d95760405162461bcd60e51b815260206004820152602560248201527f45524332303a207472616e736665722066726f6d20746865207a65726f206164604482015264647265737360d81b6064820152608401610666565b6001600160a01b03821661153b5760405162461bcd60e51b815260206004820152602360248201527f45524332303a207472616e7366657220746f20746865207a65726f206164647260448201526265737360e81b6064820152608401610666565b6001600160a01b038316600090815260208190526040902054818110156115b35760405162461bcd60e51b815260206004820152602660248201527f45524332303a207472616e7366657220616d6f756e7420657863656564732062604482015265616c616e636560d01b6064820152608401610666565b6001600160a01b038085166000908152602081905260408082208585039055918516815290812080548492906115ea908490611ec5565b92505081905550826001600160a01b0316846001600160a01b03167fddf252ad1be2c89b69c2b068fc378daa952ba7f163c4a11628f55a4df523b3ef8460405161163691815260200190565b60405180910390a350505050565b600580546001600160a01b038381166001600160a01b0319831681179093556040519116919082907f8be0079c531659141344cd1fd0a4f28419497f9722a3daafe3b4186f6b6457e090600090a35050565b6040516331a9108f60e11b8152600481018290526001600160a01b038316906342842e0e908290636352211e9060240160206040518083038186803b1580156116de57600080fd5b505afa1580156116f2573d6000803e3d6000fd5b505050506040513d601f19601f820116820180604052508101906117169190611ae0565b30846040518463ffffffff1660e01b815260040161173693929190611cd7565b600060405180830381600087803b15801561175057600080fd5b505af1158015611764573d6000803e3d6000fd5b5050600880546001908101808355600083905286945091925061178691611edd565b8154811061179657611796611faf565b6000918252602090912060039091020180546001600160a01b0319166001600160a01b0392909216919091179055600880548291906117d790600190611edd565b815481106117e7576117e7611faf565b6000918252602090912060016003909202010155336008805461180c90600190611edd565b8154811061181c5761181c611faf565b6000918252602082206003919091020160020180546001600160a01b0319166001600160a01b039390931692909217909155600b80549161185c83611f46565b91905055506032600b541061187f57600a805460ff60a01b1916600160a01b1790555b60405181906001600160a01b0384169033907f9107202a6844750a899349231d62760053b6f07b88346e1f01b07a77f480968e90600090a45050565b600a546040516323b872dd60e01b81526001600160a01b03909116906323b872dd906118ef90859030908690600401611cd7565b602060405180830381600087803b15801561190957600080fd5b505af115801561191d573d6000803e3d6000fd5b505050506040513d601f19601f820116820180604052508101906119419190611c83565b6119995760405162461bcd60e51b8152602060048201526024808201527f496e73756666696369656e742062616c616e6365206f72206e6f7420617070726044820152631bdd995960e21b6064820152608401610666565b6119a382826119dd565b60405181906001600160a01b038416907f6f600f41608fed455fc7f6dc894d0fc2579f71fcebac766b764a8f45a1a50e9290600090a35050565b6001600160a01b038216611a335760405162461bcd60e51b815260206004820152601f60248201527f45524332303a206d696e7420746f20746865207a65726f2061646472657373006044820152606401610666565b8060026000828254611a459190611ec5565b90915550506001600160a01b03821660009081526020819052604081208054839290611a72908490611ec5565b90915550506040518181526001600160a01b038316906000907fddf252ad1be2c89b69c2b068fc378daa952ba7f163c4a11628f55a4df523b3ef9060200160405180910390a35050565b600060208284031215611ace57600080fd5b8135611ad981611fdb565b9392505050565b600060208284031215611af257600080fd5b8151611ad981611fdb565b60008060408385031215611b1057600080fd5b8235611b1b81611fdb565b91506020830135611b2b81611fdb565b809150509250929050565b600080600060608486031215611b4b57600080fd5b8335611b5681611fdb565b92506020840135611b6681611fdb565b929592945050506040919091013590565b60008060008060808587031215611b8d57600080fd5b8435611b9881611fdb565b93506020850135611ba881611fdb565b925060408501359150606085013567ffffffffffffffff80821115611bcc57600080fd5b818701915087601f830112611be057600080fd5b813581811115611bf257611bf2611fc5565b604051601f8201601f19908116603f01168101908382118183101715611c1a57611c1a611fc5565b816040528281528a6020848701011115611c3357600080fd5b82602086016020830137600060208483010152809550505050505092959194509250565b60008060408385031215611c6a57600080fd5b8235611c7581611fdb565b946020939093013593505050565b600060208284031215611c9557600080fd5b81518015158114611ad957600080fd5b600060208284031215611cb757600080fd5b5035919050565b600060208284031215611cd057600080fd5b5051919050565b6001600160a01b039384168152919092166020820152604081019190915260600190565b600060208083528351808285015260005b81811015611d2857858101830151858201604001528201611d0c565b81811115611d3a576000604083870101525b50601f01601f1916929092016040019392505050565b6020808252603a908201527f5374696c6c2070726f63657373696e67207468652070726576696f757320616360408201527f74696f6e2c20776169742061206c6974746c65206c6f6e676572000000000000606082015260800190565b60208082526025908201527f4f6e6c7920636f6e7472616374732063616e2063616c6c20746869732066756e60408201526431ba34b7b760d91b606082015260800190565b6020808252818101527f4f776e61626c653a2063616c6c6572206973206e6f7420746865206f776e6572604082015260600190565b60208082526041908201527f47756d62616c6c20746f6b656e20657870697265642c2070726573732074686560408201527f2072657475726e20746f6b656e20627574746f6e20746f2074727920616761696060820152603760f91b608082015260a00190565b6020808252601f908201527f5265656e7472616e637947756172643a207265656e7472616e742063616c6c00604082015260600190565b60008219821115611ed857611ed8611f83565b500190565b600082821015611eef57611eef611f83565b500390565b600081611f0357611f03611f83565b506000190190565b600181811c90821680611f1f57607f821691505b60208210811415611f4057634e487b7160e01b600052602260045260246000fd5b50919050565b6000600019821415611f5a57611f5a611f83565b5060010190565b600082611f7e57634e487b7160e01b600052601260045260246000fd5b500690565b634e487b7160e01b600052601160045260246000fd5b634e487b7160e01b600052603160045260246000fd5b634e487b7160e01b600052603260045260246000fd5b634e487b7160e01b600052604160045260246000fd5b6001600160a01b0381168114610f2857600080fdfea264697066735822122097b3c970a9412a6f9c4c0a9b78c6fa0906ad9a38d97ea450db93e0497dfc56aa64736f6c63430008070033",
  "linkReferences": {},
  "deployedLinkReferences": {}
}